:08000000803102288731F72F3F
:100DD00021009D1408001630210097000800210012
:100DE0001C08F1001B08F0000800C0302C00930024
:100DF000920191010800031021009D1C0314003092
:100E0000093D0800133020009B009A019110043026
:100E10009C000800013021009D00D0309E009F0101
:100E20009B019C01080036302100990098012700A1
:100E30009B01220096010800F1007108F000F00DFE
:100E4000F00D21001D087006833970069D001D14E9
:100E5000080087313B278731873113278731863157
:100E6000EB2687318631F526873187310227873196
:100E700087310A27080022008C018E0130302100C2
:100E80008C001F308E000E3023008E0010308C003E
:100E900024008C012100951722009D010800710893
:100EA000F3007008F200F336F20CF336F20C72081D
:100EB0002C00920070080339F2000530F235FF3E35
:100EC000031D5E2F723591000800F401F501701CBE
:100ED0006D2F7208F4077308F53D0130F235F30DFC
:100EE000890B6E2F0130F136F00C890B732F7008CF
:100EF0007104031D672F7508F1007408F0000800E5
:100F0000873129278731033087311C2787317B08B8
:100F1000F1007A08F00087314F2787310330F7005E
:100F20008A30F6005630890B932FF60B932FF70B70
:100F3000932F8631E82687318631FB268731003AA8
:100F400003199C2F8631EF2687317108F90070084C
:100F5000F8007808AE3EF600FF30793DF700F7362E
:100F6000F60CF736F60C7608FC007708FD0000302A
:100F70007D023D3003197C02031CC22FFF30FA00B2
:100F8000FF30D92F00307D021E3003197C02031C74
:100F9000EF2F7D08F1007C08F0002230F2000030D5
:100FA000F3008731652787317008003EFA00FC3076
:100FB000713DFB00872F8631FB268731003A0319EC
:100FC000DB2F8631EF2687317108F9007008F800B1
:100FD000003079024D30031978020318F22FFA011C
:100FE000FB01872F7908FB007808FA00872FF801AA
:100FF000F901FA01FB01FC01FD0120008731802F7E
:020000040001F9
:04000E00E4FF5FDECE
:00000001FF
