:020000040000FA
:08000000803102288731F72F3F
:100D660021009D1408001630210097000800C030AD
:100D76002C00930092019101080021001C08F1004B
:100D86001B08F000C62E0800031021009D1C03144A
:100D96000030093DCE2E0800133020009B009A013A
:100DA600911004309C000800013021009D00D030D5
:100DB6009E009F019B019C0108003630210099008E
:100DC600980127009B01220096010800F100710896
:100DD600F000F00DF00D21001D0870068339700635
:100DE6009D001D1408008731092786318631E026CB
:100DF60086318631B62686318631BA2686318631E7
:100E0600CF2686318631D7268631080022008C010E
:100E16008E01303021008C001F308E000E302300F2
:100E26008E0010308C0024008C01210095172200C2
:100E36009D0108007108F3007008F200F336F20C09
:100E4600F336F20C72082C00920070080339F20097
:100E56000530F235FF3E031D2C2F72359100080038
:100E6600F401F501362F701C392F3A2F3E2F7208E8
:100E7600F4077308F53D0130F235F30D890B3F2F6A
:100E86000130F136F00C890B442F70087104031DF4
:100E96004D2F4E2F362F4F2F7508F1007408F00096
:100EA600542F08008631F626873103308631E9262D
:100EB60087317B08F1007A08F00087311D278731DA
:100EC600642F0330F7008A30F6005630890B692FFD
:100ED600F60B692FF70B692F22000E18732F742F4C
:100EE600C52F8631B3268731792F792F8631C726CC
:100EF6008731003A0319802F812F792F822F86316F
:100F0600C02687317108F9007008F8007808AE3EEF
:100F1600F600FF30793DF700F736F60CF736F60C9B
:100F26007608FC007708FD0000307D023D3003198D
:100F36007C02031C9F2FA02FA52FFF30FA00FF3045
:100F4600FB00EC2F00307D021E3003197C020318D3
:100F5600AD2FAE2FB12FFA01FB01EC2F7D08F1006A
:100F66007C08F0002230F2000030F300873133278E
:100F760087317008003EFA00FC30713DFB00EC2F13
:100F8600EC2FEC2F8631B3268731CA2FCA2F863134
:100F9600C7268731003A0319D12FD22FCA2FD32F54
:100FA6008631C02687317108F9007008F8000130D3
:100FB60079023430031978020318E22FE32FE62F63
:100FC600FA01FB01EC2F7908FB007808FA00EC2FF8
:100FD600EC2F7B08F1007A08F00087311D27873156
:100FE600642F642F80310228F801F901FA01FB0110
:0A0FF600FC01FD0120008731552F9A
:020000040001F9
:04000E00E4FF5FDECE
:00000001FF
